{
  "contractName": "Item",
  "abi": [
    {
      "inputs": [
        {
          "internalType": "contract ItemManager",
          "name": "_parentContract",
          "type": "address"
        },
        {
          "internalType": "uint256",
          "name": "_priceInWei",
          "type": "uint256"
        },
        {
          "internalType": "uint256",
          "name": "_index",
          "type": "uint256"
        }
      ],
      "stateMutability": "nonpayable",
      "type": "constructor"
    },
    {
      "stateMutability": "nonpayable",
      "type": "fallback"
    },
    {
      "inputs": [],
      "name": "index",
      "outputs": [
        {
          "internalType": "uint256",
          "name": "",
          "type": "uint256"
        }
      ],
      "stateMutability": "view",
      "type": "function"
    },
    {
      "inputs": [],
      "name": "paidWei",
      "outputs": [
        {
          "internalType": "uint256",
          "name": "",
          "type": "uint256"
        }
      ],
      "stateMutability": "view",
      "type": "function"
    },
    {
      "inputs": [],
      "name": "priceInWei",
      "outputs": [
        {
          "internalType": "uint256",
          "name": "",
          "type": "uint256"
        }
      ],
      "stateMutability": "view",
      "type": "function"
    },
    {
      "stateMutability": "payable",
      "type": "receive"
    }
  ],
  "bytecode": "0x608060405234801561001057600080fd5b5060405161077438038061077483398181016040528101906100329190610134565b816000819055508060028190555082600360006101000a81548173ffffffffffffffffffffffffffffffffffffffff021916908373ffffffffffffffffffffffffffffffffffffffff160217905550505050610187565b600080fd5b600073ffffffffffffffffffffffffffffffffffffffff82169050919050565b60006100b98261008e565b9050919050565b60006100cb826100ae565b9050919050565b6100db816100c0565b81146100e657600080fd5b50565b6000815190506100f8816100d2565b92915050565b6000819050919050565b610111816100fe565b811461011c57600080fd5b50565b60008151905061012e81610108565b92915050565b60008060006060848603121561014d5761014c610089565b5b600061015b868287016100e9565b935050602061016c8682870161011f565b925050604061017d8682870161011f565b9150509250925092565b6105de806101966000396000f3fe6080604052600436106100385760003560e01c80632986c0e5146102505780633c8da5881461027b57806383d12eef146102a657610241565b36610241576000543414610081576040517f08c379a000000000000000000000000000000000000000000000000000000000815260040161007890610366565b60405180910390fd5b6000600154146100c6576040517f08c379a00000000000000000000000000000000000000000000000000000000081526004016100bd906103d2565b60405180910390fd5b34600160008282546100d8919061042b565b925050819055506000600360009054906101000a900473ffffffffffffffffffffffffffffffffffffffff1673ffffffffffffffffffffffffffffffffffffffff163460025460405160240161012e9190610490565b6040516020818303038152906040527f800fb83f000000000000000000000000000000000000000000000000000000007bffffffffffffffffffffffffffffffffffffffffffffffffffffffff19166020820180517bffffffffffffffffffffffffffffffffffffffffffffffffffffffff83818316178352505050506040516101b89190610525565b60006040518083038185875af1925050503d80600081146101f5576040519150601f19603f3d011682016040523d82523d6000602084013e6101fa565b606091505b505090508061023e576040517f08c379a000000000000000000000000000000000000000000000000000000000815260040161023590610588565b60405180910390fd5b50005b34801561024d57600080fd5b50005b34801561025c57600080fd5b506102656102d1565b6040516102729190610490565b60405180910390f35b34801561028757600080fd5b506102906102d7565b60405161029d9190610490565b60405180910390f35b3480156102b257600080fd5b506102bb6102dd565b6040516102c89190610490565b60405180910390f35b60025481565b60005481565b60015481565b600082825260208201905092915050565b7f576520646f6e277420737570706f7274207061727469616c207061796d656e7460008201527f7300000000000000000000000000000000000000000000000000000000000000602082015250565b60006103506021836102e3565b915061035b826102f4565b604082019050919050565b6000602082019050818103600083015261037f81610343565b9050919050565b7f4974656d20697320616c72656164792070616964210000000000000000000000600082015250565b60006103bc6015836102e3565b91506103c782610386565b602082019050919050565b600060208201905081810360008301526103eb816103af565b9050919050565b6000819050919050565b7f4e487b7100000000000000000000000000000000000000000000000000000000600052601160045260246000fd5b6000610436826103f2565b9150610441836103f2565b9250827fffffffffffffffffffffffffffffffffffffffffffffffffffffffffffffffff03821115610476576104756103fc565b5b828201905092915050565b61048a816103f2565b82525050565b60006020820190506104a56000830184610481565b92915050565b600081519050919050565b600081905092915050565b60005b838110156104df5780820151818401526020810190506104c4565b838111156104ee576000848401525b50505050565b60006104ff826104ab565b61050981856104b6565b93506105198185602086016104c1565b80840191505092915050565b600061053182846104f4565b915081905092915050565b7f44656c697665727920646964206e6f7420776f726b0000000000000000000000600082015250565b60006105726015836102e3565b915061057d8261053c565b602082019050919050565b600060208201905081810360008301526105a181610565565b905091905056fea26469706673582212204127448d564c6895dc8aa8b667457bea5785e950eb52486e0c99065a3a34f88e64736f6c634300080b0033",
  "immutableReferences": {},
  "source": "//SPDX-License-Identifier: MIT\npragma solidity ^0.8.4 <= 0.9.0;\nimport \"@openzeppelin/contracts/access/Ownable.sol\";\n\ncontract ItemManager is Ownable {\n    enum SupplyChainSteps{Created, Paid, Delivered}\n\n    struct S_Item {\n        Item _item;\n        ItemManager.SupplyChainSteps _step;\n        string _identifier;\n    }\n    mapping(uint => S_Item) public items;\n    uint index;\n\n    event SupplyChainStep(uint _itemIndex, uint _step, address _address);\n    event Debugger(address _senderAddress, S_Item _item);\n\n    function createItem(string memory _identifier, uint _priceInWei) public onlyOwner {\n        Item item = new Item(this, _priceInWei, index);\n        items[index]._item = item;\n        items[index]._step = SupplyChainSteps.Created;\n        items[index]._identifier = _identifier;\n        emit Debugger(msg.sender, items[index]);\n        emit SupplyChainStep(index, uint(items[index]._step), address(item));\n        index++;\n    }\n\n    function triggerPayment(uint _index) public payable {\n        Item item = items[_index]._item;\n        require(address(item) == msg.sender, \"Only items are allowed to update themselves\");\n        require(item.priceInWei() == msg.value, \"not fully paid yet\");\n        require(items[_index]._step == SupplyChainSteps.Created, \"Item is further in the supply chain\");\n        items[_index]._step = SupplyChainSteps.Paid;\n        emit SupplyChainStep(_index, uint(items[_index]._step), address(item));\n    }\n\n    function triggerDelivery(uint _index) public onlyOwner {\n        require(items[_index]._step == SupplyChainSteps.Paid, \"Item is further in the supply chain\");\n        items[_index]._step = SupplyChainSteps.Delivered;\n        emit SupplyChainStep(_index, uint(items[_index]._step), address(items[_index]._item));\n    }\n}\n\ncontract Item {\n    uint public priceInWei;\n    uint public paidWei;\n    uint public index;\n\n    ItemManager parentContract;\n\n    constructor(ItemManager _parentContract, uint _priceInWei, uint _index) {\n        priceInWei = _priceInWei;\n        index = _index;\n        parentContract = _parentContract;\n    }\n\n    receive() external payable {\n        require(msg.value == priceInWei, \"We don't support partial payments\");\n        require(paidWei == 0, \"Item is already paid!\");\n        paidWei += msg.value;\n        (bool success, ) = address(parentContract).call{value:msg.value}(abi.encodeWithSignature(\"triggerPayment(uint256)\", index));\n        require(success, \"Delivery did not work\");\n    }\n\n    fallback () external {\n\n    }\n\n}",
  "sourcePath": "/home/gregtandiono/development/clearview/crypto-presentation/logistic/contracts/SupplyChain.sol",
  "compiler": {
    "name": "solc",
    "version": "0.8.11+commit.d7f03943.Emscripten.clang"
  },
  "schemaVersion": "3.4.4",
  "updatedAt": "2022-02-01T04:46:35.901Z",
  "devdoc": {
    "kind": "dev",
    "methods": {},
    "version": 1
  },
  "userdoc": {
    "kind": "user",
    "methods": {},
    "version": 1
  }
}